{
  "_format": "hh-sol-artifact-1",
  "contractName": "PoolFactory",
  "sourceName": "contracts/PoolFactory.sol",
  "abi": [
    {
      "inputs": [],
      "name": "CalldataMustHaveValidPayload",
      "type": "error"
    },
    {
      "inputs": [],
      "name": "CalldataOverOrUnderFlow",
      "type": "error"
    },
    {
      "inputs": [],
      "name": "CanNotPickMedianOfEmptyArray",
      "type": "error"
    },
    {
      "inputs": [],
      "name": "EachSignerMustProvideTheSameValue",
      "type": "error"
    },
    {
      "inputs": [],
      "name": "EmptyCalldataPointersArr",
      "type": "error"
    },
    {
      "inputs": [],
      "name": "IncorrectUnsignedMetadataSize",
      "type": "error"
    },
    {
      "inputs": [
        {
          "internalType": "uint256",
          "name": "receivedSignersCount",
          "type": "uint256"
        },
        {
          "internalType": "uint256",
          "name": "requiredSignersCount",
          "type": "uint256"
        }
      ],
      "name": "InsufficientNumberOfUniqueSigners",
      "type": "error"
    },
    {
      "inputs": [],
      "name": "InvalidCalldataPointer",
      "type": "error"
    },
    {
      "inputs": [
        {
          "internalType": "address",
          "name": "receivedSigner",
          "type": "address"
        }
      ],
      "name": "SignerNotAuthorised",
      "type": "error"
    },
    {
      "inputs": [
        {
          "internalType": "uint256",
          "name": "receivedTimestampSeconds",
          "type": "uint256"
        },
        {
          "internalType": "uint256",
          "name": "blockTimestamp",
          "type": "uint256"
        }
      ],
      "name": "TimestampFromTooLongFuture",
      "type": "error"
    },
    {
      "inputs": [
        {
          "internalType": "uint256",
          "name": "receivedTimestampSeconds",
          "type": "uint256"
        },
        {
          "internalType": "uint256",
          "name": "blockTimestamp",
          "type": "uint256"
        }
      ],
      "name": "TimestampIsTooOld",
      "type": "error"
    },
    {
      "anonymous": false,
      "inputs": [
        {
          "indexed": false,
          "internalType": "uint256",
          "name": "daoIndex",
          "type": "uint256"
        },
        {
          "indexed": false,
          "internalType": "uint256",
          "name": "poolIndex",
          "type": "uint256"
        },
        {
          "indexed": false,
          "internalType": "uint256",
          "name": "newprice",
          "type": "uint256"
        }
      ],
      "name": "PriceUpdate",
      "type": "event"
    },
    {
      "anonymous": false,
      "inputs": [
        {
          "indexed": false,
          "internalType": "uint256",
          "name": "daoIndex",
          "type": "uint256"
        },
        {
          "indexed": false,
          "internalType": "uint256",
          "name": "poolIndex",
          "type": "uint256"
        }
      ],
      "name": "PromptForUpdate",
      "type": "event"
    },
    {
      "anonymous": false,
      "inputs": [
        {
          "components": [
            {
              "internalType": "address",
              "name": "addr",
              "type": "address"
            },
            {
              "internalType": "uint256",
              "name": "bnbStaked",
              "type": "uint256"
            },
            {
              "internalType": "uint256",
              "name": "reward",
              "type": "uint256"
            }
          ],
          "indexed": false,
          "internalType": "struct PoolFactory.Arbitrageur",
          "name": "arbitrageur",
          "type": "tuple"
        },
        {
          "indexed": false,
          "internalType": "uint256",
          "name": "reward",
          "type": "uint256"
        }
      ],
      "name": "Reward",
      "type": "event"
    },
    {
      "inputs": [
        {
          "internalType": "uint256[]",
          "name": "values",
          "type": "uint256[]"
        }
      ],
      "name": "aggregateValues",
      "outputs": [
        {
          "internalType": "uint256",
          "name": "",
          "type": "uint256"
        }
      ],
      "stateMutability": "view",
      "type": "function"
    },
    {
      "inputs": [
        {
          "internalType": "address",
          "name": "",
          "type": "address"
        }
      ],
      "name": "arbitrageCounts",
      "outputs": [
        {
          "internalType": "uint256",
          "name": "",
          "type": "uint256"
        }
      ],
      "stateMutability": "view",
      "type": "function"
    },
    {
      "inputs": [
        {
          "internalType": "uint256",
          "name": "",
          "type": "uint256"
        }
      ],
      "name": "arbitrageRewards",
      "outputs": [
        {
          "internalType": "address",
          "name": "",
          "type": "address"
        }
      ],
      "stateMutability": "view",
      "type": "function"
    },
    {
      "inputs": [
        {
          "internalType": "uint256",
          "name": "",
          "type": "uint256"
        }
      ],
      "name": "arbitrageurs",
      "outputs": [
        {
          "internalType": "address",
          "name": "addr",
          "type": "address"
        },
        {
          "internalType": "uint256",
          "name": "bnbStaked",
          "type": "uint256"
        },
        {
          "internalType": "uint256",
          "name": "reward",
          "type": "uint256"
        }
      ],
      "stateMutability": "view",
      "type": "function"
    },
    {
      "inputs": [
        {
          "internalType": "uint256",
          "name": "_daoIndex",
          "type": "uint256"
        },
        {
          "internalType": "address",
          "name": "_token",
          "type": "address"
        },
        {
          "internalType": "address",
          "name": "_pair",
          "type": "address"
        },
        {
          "internalType": "uint256",
          "name": "_price",
          "type": "uint256"
        },
        {
          "internalType": "uint256",
          "name": "_balance",
          "type": "uint256"
        }
      ],
      "name": "createSingleAssetPool",
      "outputs": [],
      "stateMutability": "nonpayable",
      "type": "function"
    },
    {
      "inputs": [],
      "name": "daoCount",
      "outputs": [
        {
          "internalType": "uint256",
          "name": "",
          "type": "uint256"
        }
      ],
      "stateMutability": "view",
      "type": "function"
    },
    {
      "inputs": [
        {
          "internalType": "uint256",
          "name": "",
          "type": "uint256"
        }
      ],
      "name": "daos",
      "outputs": [
        {
          "internalType": "address",
          "name": "dao",
          "type": "address"
        },
        {
          "internalType": "uint256",
          "name": "numPools",
          "type": "uint256"
        },
        {
          "internalType": "string",
          "name": "cid",
          "type": "string"
        }
      ],
      "stateMutability": "view",
      "type": "function"
    },
    {
      "inputs": [
        {
          "internalType": "uint256",
          "name": "_daoIndex",
          "type": "uint256"
        },
        {
          "internalType": "uint256",
          "name": "_poolIndex",
          "type": "uint256"
        },
        {
          "internalType": "uint256",
          "name": "_rewardAmount",
          "type": "uint256"
        }
      ],
      "name": "distributeRewards",
      "outputs": [],
      "stateMutability": "nonpayable",
      "type": "function"
    },
    {
      "inputs": [
        {
          "internalType": "address",
          "name": "signerAddress",
          "type": "address"
        }
      ],
      "name": "getAuthorisedSignerIndex",
      "outputs": [
        {
          "internalType": "uint8",
          "name": "",
          "type": "uint8"
        }
      ],
      "stateMutability": "view",
      "type": "function"
    },
    {
      "inputs": [],
      "name": "getLatestEthPrice",
      "outputs": [
        {
          "internalType": "uint256",
          "name": "",
          "type": "uint256"
        }
      ],
      "stateMutability": "view",
      "type": "function"
    },
    {
      "inputs": [
        {
          "internalType": "bytes32",
          "name": "_data",
          "type": "bytes32"
        }
      ],
      "name": "getLatestTokenPrice",
      "outputs": [
        {
          "internalType": "uint256",
          "name": "",
          "type": "uint256"
        }
      ],
      "stateMutability": "view",
      "type": "function"
    },
    {
      "inputs": [],
      "name": "getUniqueSignersThreshold",
      "outputs": [
        {
          "internalType": "uint8",
          "name": "",
          "type": "uint8"
        }
      ],
      "stateMutability": "view",
      "type": "function"
    },
    {
      "inputs": [
        {
          "internalType": "uint256",
          "name": "_poolIndex",
          "type": "uint256"
        },
        {
          "internalType": "uint256",
          "name": "_tokenAmount",
          "type": "uint256"
        }
      ],
      "name": "joinPool",
      "outputs": [],
      "stateMutability": "payable",
      "type": "function"
    },
    {
      "inputs": [],
      "name": "poolCount",
      "outputs": [
        {
          "internalType": "uint256",
          "name": "",
          "type": "uint256"
        }
      ],
      "stateMutability": "view",
      "type": "function"
    },
    {
      "inputs": [
        {
          "internalType": "uint256",
          "name": "",
          "type": "uint256"
        }
      ],
      "name": "pools",
      "outputs": [
        {
          "internalType": "address",
          "name": "creator",
          "type": "address"
        },
        {
          "internalType": "address",
          "name": "token",
          "type": "address"
        },
        {
          "internalType": "address",
          "name": "pair",
          "type": "address"
        },
        {
          "internalType": "uint256",
          "name": "price",
          "type": "uint256"
        },
        {
          "internalType": "uint256",
          "name": "balance",
          "type": "uint256"
        },
        {
          "internalType": "bool",
          "name": "active",
          "type": "bool"
        },
        {
          "internalType": "uint256",
          "name": "arbitrageurCount",
          "type": "uint256"
        },
        {
          "internalType": "uint256",
          "name": "daoIndex",
          "type": "uint256"
        }
      ],
      "stateMutability": "view",
      "type": "function"
    },
    {
      "inputs": [
        {
          "internalType": "string",
          "name": "_cid",
          "type": "string"
        }
      ],
      "name": "registerDAO",
      "outputs": [],
      "stateMutability": "nonpayable",
      "type": "function"
    },
    {
      "inputs": [
        {
          "internalType": "uint256",
          "name": "_daoIndex",
          "type": "uint256"
        },
        {
          "internalType": "uint256",
          "name": "_poolIndex",
          "type": "uint256"
        },
        {
          "internalType": "uint256",
          "name": "_pairAmount",
          "type": "uint256"
        },
        {
          "internalType": "uint256",
          "name": "_currentPrice",
          "type": "uint256"
        }
      ],
      "name": "swap",
      "outputs": [],
      "stateMutability": "nonpayable",
      "type": "function"
    },
    {
      "inputs": [
        {
          "internalType": "uint256",
          "name": "_daoIndex",
          "type": "uint256"
        },
        {
          "internalType": "uint256",
          "name": "_poolIndex",
          "type": "uint256"
        },
        {
          "internalType": "uint256",
          "name": "_newPrice",
          "type": "uint256"
        }
      ],
      "name": "updatePrice",
      "outputs": [],
      "stateMutability": "nonpayable",
      "type": "function"
    },
    {
      "inputs": [
        {
          "internalType": "uint256",
          "name": "receivedTimestampMilliseconds",
          "type": "uint256"
        }
      ],
      "name": "validateTimestamp",
      "outputs": [],
      "stateMutability": "view",
      "type": "function"
    }
  ],
  "bytecode": "0x608060405234801561001057600080fd5b5061273d806100206000396000f3fe6080604052600436106101145760003560e01c8063ac4afa38116100a0578063f089e3e811610064578063f089e3e8146103fe578063f50b2efe1461041e578063f525cb681461043e578063f87748e214610454578063f90c49241461047457600080fd5b8063ac4afa38146102b8578063b24ebfcc14610379578063ccbbd26014610399578063d01cf419146103c8578063d8078288146103de57600080fd5b806341a004ed116100e757806341a004ed146101a857806351334a8a146101c85780635673b02d146101f55780638686a885146102155780638f01ed851461024d57600080fd5b80630f43612914610119578063108c84921461013b57806330c0b9ec1461014e5780633ce142f514610176575b600080fd5b34801561012557600080fd5b50610139610134366004612223565b610488565b005b61013961014936600461224f565b610562565b34801561015a57600080fd5b50610163610725565b6040519081526020015b60405180910390f35b34801561018257600080fd5b50610196610191366004612288565b61073e565b60405160ff909116815260200161016d565b3480156101b457600080fd5b506101396101c33660046122a3565b610796565b3480156101d457600080fd5b506101636101e3366004612288565b60066020526000908152604090205481565b34801561020157600080fd5b506101396102103660046122f1565b610aac565b34801561022157600080fd5b50610235610230366004612323565b6112ca565b6040516001600160a01b03909116815260200161016d565b34801561025957600080fd5b50610293610268366004612323565b6004602052600090815260409020805460018201546002909201546001600160a01b03909116919083565b604080516001600160a01b03909416845260208401929092529082015260600161016d565b3480156102c457600080fd5b5061032b6102d3366004612323565b6003602081905260009182526040909120805460018201546002830154938301546004840154600585015460068601546007909601546001600160a01b03958616979486169695909416949293919260ff9091169188565b604080516001600160a01b03998a1681529789166020890152959097169486019490945260608501929092526080840152151560a083015260c082015260e08101919091526101000161016d565b34801561038557600080fd5b50610163610394366004612383565b6112f4565b3480156103a557600080fd5b506103b96103b4366004612323565b611305565b60405161016d9392919061241d565b3480156103d457600080fd5b5061016360005481565b3480156103ea57600080fd5b506101636103f9366004612323565b6113bc565b34801561040a57600080fd5b50610139610419366004612223565b6113c7565b34801561042a57600080fd5b50610139610439366004612323565b611746565b34801561044a57600080fd5b5061016360015481565b34801561046057600080fd5b5061013961046f366004612489565b611752565b34801561048057600080fd5b506001610196565b60005483106104b25760405162461bcd60e51b81526004016104a99061251e565b60405180910390fd5b6000838152600260205260409020600181015483106104e35760405162461bcd60e51b81526004016104a99061254a565b600083815260036020818152604080842092830186905533845260069091528220805491926105118361258d565b90915550506003810154604080518781526020810187905280820192909252517ff08a3b46f5df3430999903a65464921cb8ad37ea42c9fcced53d74978c180f519181900360600190a15050505050565b6001548083116105845760405162461bcd60e51b81526004016104a99061254a565b60008381526003602052604090203483146105e15760405162461bcd60e51b815260206004820152601b60248201527f496e636f727265637420546f6b656e20616d6f756e742073656e74000000000060448201526064016104a9565b60018101546040516323b872dd60e01b81526001600160a01b03909116906323b872dd90610617903390309088906004016125a8565b602060405180830381600087803b15801561063157600080fd5b505af1158015610645573d6000803e3d6000fd5b505050506040513d601f19601f8201168201806040525081019061066991906125cc565b508281600401600082825461067e91906125ee565b90915550506040805160608101825233808252602080830187815260008486018181528a82526003845286822060069081015480845260048652888420885181546001600160a01b0319166001600160a01b039091161781559451600186015591516002909401939093559381529152928320805492939192916107018361258d565b90915550506006830180549060006107188361258d565b9190505550505050505050565b6000634141564560e01b610738816117ba565b91505090565b6000730c39486f770b26f5527bbbf942726537986cd7eb6001600160a01b038316141561076d57506000919050565b6040516303b1166f60e61b81526001600160a01b03831660048201526024016104a9565b919050565b60005485106107b75760405162461bcd60e51b81526004016104a99061251e565b6040516323b872dd60e01b81526001600160a01b038516906323b872dd906107e7903390309086906004016125a8565b602060405180830381600087803b15801561080157600080fd5b505af1158015610815573d6000803e3d6000fd5b505050506040513d601f19601f8201168201806040525081019061083991906125cc565b61087d5760405162461bcd60e51b8152602060048201526015602482015274151bdad95b881d1c985b9cd9995c8819985a5b1959605a1b60448201526064016104a9565b60006001549050604051806101000160405280336001600160a01b03168152602001866001600160a01b03168152602001856001600160a01b0316815260200184815260200183815260200160011515815260200160008152602001878152506003600083815260200190815260200160002060008201518160000160006101000a8154816001600160a01b0302191690836001600160a01b0316021790555060208201518160010160006101000a8154816001600160a01b0302191690836001600160a01b0316021790555060408201518160020160006101000a8154816001600160a01b0302191690836001600160a01b03160217905550606082015181600301556080820151816004015560a08201518160050160006101000a81548160ff02191690831515021790555060c0820151816006015560e082015181600701559050506002600087815260200190815260200160002060010160008154809291906109e99061258d565b9091555050604080516060810182523381526020808201858152600083850181815260018054835260038552868320600601548084526004909552958220855181546001600160a01b0319166001600160a01b03909116178155925183870155516002909201919091558354929391929190610a648361258d565b91905055506003600060018054610a7b9190612606565b81526020019081526020016000206006016000815480929190610a9d9061258d565b91905055505050505050505050565b6000548410610acd5760405162461bcd60e51b81526004016104a99061251e565b600084815260026020526040902060018101548410610afe5760405162461bcd60e51b81526004016104a99061254a565b60008481526003602081905260408220908101549091908411610b3057838260030154610b2b9190612606565b610b3f565b6003820154610b3f9085612606565b90506000606483600301546003610b56919061261d565b610b609190612652565b905080821115610c115760408051898152602081018990527f8751b5c2c9960f8b661051ec27b29edccb8716d12cf30e495ec1c62633de414e910160405180910390a160405162461bcd60e51b815260206004820152603860248201527f43757272656e74207072696365206973206e6f742072656c6961626c652c207060448201527f6c6561736520757064617465207472616e73616374696f6e000000000000000060648201526084016104a9565b6000836003015411610c555760405162461bcd60e51b815260206004820152600d60248201526c496e76616c696420707269636560981b60448201526064016104a9565b6002830154604051636eb1769f60e11b81523360048201523060248201526000916001600160a01b03169063dd62ed3e9060440160206040518083038186803b158015610ca157600080fd5b505afa158015610cb5573d6000803e3d6000fd5b505050506040513d601f19601f82011682018060405250810190610cd99190612666565b905086811015610d245760405162461bcd60e51b8152602060048201526016602482015275496e73756666696369656e7420616c6c6f77616e636560501b60448201526064016104a9565b6000670de0b6b3a7640000856003015489610d3f919061261d565b610d499190612652565b905060006064610d5a83600261261d565b610d649190612652565b60018701546040516323b872dd60e01b81529192506001600160a01b0316906323b872dd90610d9b903390309086906004016125a8565b602060405180830381600087803b158015610db557600080fd5b505af1158015610dc9573d6000803e3d6000fd5b505050506040513d601f19601f82011682018060405250810190610ded91906125cc565b610e095760405162461bcd60e51b81526004016104a99061267f565b60028601546040516323b872dd60e01b815282916001600160a01b0316906323b872dd90610e3f90339030908f906004016125a8565b602060405180830381600087803b158015610e5957600080fd5b505af1158015610e6d573d6000803e3d6000fd5b505050506040513d601f19601f82011682018060405250810190610e9191906125cc565b610ead5760405162461bcd60e51b81526004016104a99061267f565b600187015460405163a9059cbb60e01b8152336004820152602481018590526001600160a01b039091169063a9059cbb90604401602060405180830381600087803b158015610efb57600080fd5b505af1158015610f0f573d6000803e3d6000fd5b505050506040513d601f19601f82011682018060405250810190610f3391906125cc565b610f4f5760405162461bcd60e51b81526004016104a99061267f565b6000610f5b82856125ee565b9050876004015481106112965760028801546040516370a0823160e01b81523060048201526000916001600160a01b0316906370a082319060240160206040518083038186803b158015610fae57600080fd5b505afa158015610fc2573d6000803e3d6000fd5b505050506040513d601f19601f82011682018060405250810190610fe69190612666565b9050600089600401819055506000808a6006015467ffffffffffffffff8111156110125761101261233c565b60405190808252806020026020018201604052801561103b578160200160208202803683370190505b5090506000805b8c600601548110156110b0578c546000828152600460205260409020546001600160a01b039081169116141561109e5780838381518110611085576110856126a8565b60209081029190910101528161109a8161258d565b9250505b806110a88161258d565b915050611042565b5060005b8c6006015481101561110f57600460008483815181106110d6576110d66126a8565b6020026020010151815260200190815260200160002060010154846110fb91906125ee565b9350806111078161258d565b9150506110b4565b5060005b8c6006015481101561128c57600060046000858481518110611137576111376126a8565b6020026020010151815260200190815260200160002060000160009054906101000a90046001600160a01b031690506000858760046000888781518110611180576111806126a8565b60200260200101518152602001908152602001600020600101546111a4919061261d565b6111ae9190612652565b90508e60020160009054906101000a90046001600160a01b03166001600160a01b031663a9059cbb83836040518363ffffffff1660e01b81526004016112099291906001600160a01b03929092168252602082015260400190565b602060405180830381600087803b15801561122357600080fd5b505af1158015611237573d6000803e3d6000fd5b505050506040513d601f19601f8201168201806040525081019061125b91906125cc565b6112775760405162461bcd60e51b81526004016104a99061267f565b505080806112849061258d565b915050611113565b50505050506112b0565b808860040160008282546112aa9190612606565b90915550505b6112bb8d8d846113c7565b50505050505050505050505050565b600581815481106112da57600080fd5b6000918252602090912001546001600160a01b0316905081565b60006112ff8261182a565b92915050565b60026020819052600091825260409091208054600182015492820180546001600160a01b03909216939291611339906126be565b80601f0160208091040260200160405190810160405280929190818152602001828054611365906126be565b80156113b25780601f10611387576101008083540402835291602001916113b2565b820191906000526020600020905b81548152906001019060200180831161139557829003601f168201915b5050505050905083565b60006112ff826117ba565b60005483106113e85760405162461bcd60e51b81526004016104a99061251e565b6000838152600260205260409020600181015483106114195760405162461bcd60e51b81526004016104a99061254a565b600083815260036020526040812060068101549091908190819067ffffffffffffffff81111561144b5761144b61233c565b604051908082528060200260200182016040528015611474578160200160208202803683370190505b5090506000805b85600601548110156114e95785546000828152600460205260409020546001600160a01b03908116911614156114d757808383815181106114be576114be6126a8565b6020908102919091010152816114d38161258d565b9250505b806114e18161258d565b91505061147b565b5060005b85600601548110156115a5576004600084838151811061150f5761150f6126a8565b60200260200101518152602001908152602001600020600101548561153491906125ee565b94506006600060046000868581518110611550576115506126a8565b60209081029190910181015182528181019290925260409081016000908120546001600160a01b0316845291830193909352910190205461159190856125ee565b93508061159d8161258d565b9150506114ed565b5060005b856006015481101561173a576000600460008584815181106115cd576115cd6126a8565b60200260200101518152602001908152602001600020905060008686600460008887815181106115ff576115ff6126a8565b6020026020010151815260200190815260200160002060010154611623919061261d565b60046000888781518110611639576116396126a8565b602002602001015181526020019081526020016000206001015461165d91906125ee565b611667908c61261d565b6116719190612652565b9050600660006004600088878151811061168d5761168d6126a8565b60209081029190910181015182528181019290925260409081016000908120546001600160a01b0316845291830193909352908201812055517fcee4e570bd97481e93a7077ccb414cdf49f959eb4d1cd240e95480b49306ca309061171d908490849082546001600160a01b03168152600183015460208201526002909201546040830152606082015260800190565b60405180910390a1505080806117329061258d565b9150506115a9565b50505050505050505050565b61174f81611835565b50565b60008054815260026020818152604080842080546001600160a01b0319163317905583548452909220835161178f9391909201919084019061218a565b50600080548152600260205260408120600101819055805490806117b28361258d565b919050555050565b6040805160018082528183019092526000918291906020808301908036833701905050905082816000815181106117f3576117f36126a8565b602002602001018181525050611808816118b9565b60008151811061181a5761181a6126a8565b6020026020010151915050919050565b60006112ff826118c4565b60006118436103e883612652565b90508042101561188557603c6118594283612606565b11156118815760405163b6b0916d60e01b8152600481018290524260248201526044016104a9565b5050565b60b46118918242612606565b111561188157604051630321d0b560e01b8152600481018290524260248201526044016104a9565b60606112ff8261198b565b60008151600014156118e957604051639e198af960e01b815260040160405180910390fd5b6118f282611b4f565b6000600283516119029190612652565b90506002835161191291906126f3565b61197357600061195e84611927600185612606565b81518110611937576119376126a8565b6020026020010151858481518110611951576119516126a8565b6020026020010151611b9d565b905061196b600282612652565b949350505050565b82818151811061181a5761181a6126a8565b50919050565b60606000825167ffffffffffffffff8111156119a9576119a961233c565b6040519080825280602002602001820160405280156119d2578160200160208202803683370190505b5090506000835167ffffffffffffffff8111156119f1576119f161233c565b604051908082528060200260200182016040528015611a1a578160200160208202803683370190505b5090506000845167ffffffffffffffff811115611a3957611a3961233c565b604051908082528060200260200182016040528015611a6c57816020015b6060815260200190600190039081611a575790505b50905060005b8551811015611ac957604080516001808252818301909252906020808301908036833701905050828281518110611aab57611aab6126a8565b60200260200101819052508080611ac19061258d565b915050611a72565b506000611ad4611bb0565b90506000611ae182611c57565b61ffff169050611af26002836125ee565b60405190925060005b82811015611b38576000611b128a89898989611c91565b9050611b1e81866125ee565b945082604052508080611b309061258d565b915050611afb565b50611b438487611f32565b98975050505050505050565b8051602082016020820281019150805b82811015611b9757815b81811015611b8e578151815180821015611b84578084528183525b5050602001611b69565b50602001611b5f565b50505050565b6000611ba982846125ee565b9392505050565b60006602ed57011e0000601f1936013581161480611be1576040516373bb264f60e11b815260040160405180910390fd5b60003660291115611c0557604051632bcb7bc560e11b815260040160405180910390fd5b5060281936013560006009611c20600362ffffff85166125ee565b611c2a91906125ee565b905036611c386002836125ee565b1115611ba95760405163c30a7bd760e01b815260040160405180910390fd5b600080611c656020846125ee565b905036811115611c8857604051632bcb7bc560e11b815260040160405180910390fd5b36033592915050565b600080600080611ca08561204b565b909250905060008080606081600d611cc3611cbc6020896125ee565b899061209b565b611ccd91906125ee565b90506000611ce6611cdf60688d6125ee565b36906120a7565b90506000611d0383611cf960418f6125ee565b611cdf91906125ee565b9050611d0f8382611d22565b9350826020850120945081359650611d46565b60408051838152602081850181019092526000910183838237601f19019392505050565b611d578765ffffffffffff16611746565b611d6b85611d6660418f6125ee565b6120b3565b9550611d768661073e565b60ff1699505050505050505060008060005b84811015611eff57611d9b88858361212b565b909350915060005b8c51811015611eec578c8181518110611dbe57611dbe6126a8565b6020026020010151841415611eda5760008b8281518110611de157611de16126a8565b60200260200101519050611dfa81896001901b16151590565b158015611e235750600160ff168d8381518110611e1957611e196126a8565b6020026020010151105b15611ed4578c8281518110611e3a57611e3a6126a8565b602002602001018051809190611e4f9061258d565b81525050838b8381518110611e6657611e666126a8565b602002602001015160018f8581518110611e8257611e826126a8565b6020026020010151611e949190612606565b81518110611ea457611ea46126a8565b60209081029190910101526001881b81178c8381518110611ec757611ec76126a8565b6020026020010181815250505b50611eec565b80611ee48161258d565b915050611da3565b5080611ef78161258d565b915050611d88565b50505081602082611f1091906125ee565b611f1a919061261d565b611f2590604e6125ee565b9998505050505050505050565b60606000835167ffffffffffffffff811115611f5057611f5061233c565b604051908082528060200260200182016040528015611f79578160200160208202803683370190505b509050600160005b85518110156120415781858281518110611f9d57611f9d6126a8565b60200260200101511015611fea57848181518110611fbd57611fbd6126a8565b602002602001015182604051632b13aef560e01b81526004016104a9929190918252602082015260400190565b600061200e878381518110612001576120016126a8565b60200260200101516112f4565b905080848381518110612023576120236126a8565b602090810291909101015250806120398161258d565b915050611f81565b5090949350505050565b60008080808061205c6041876125ee565b9050600061206e611cdf6020846125ee565b80359450905061207f8160036120a7565b62ffffff9490941697933563ffffffff16965092945050505050565b6000611ba9828461261d565b6000611ba98284612606565b60408051600080825260208083018085528690523685900380850135831a948401859052803560608501819052910135608084018190529193909260019060a0016020604051602081039080840390855afa158015612116573d6000803e3d6000fd5b5050604051601f190151979650505050505050565b6000808061213a604e876125ee565b9050600061216761216061214f6020896125ee565b61215a8860016125ee565b9061209b565b8390611b9d565b9050600061217536836120a7565b80359960209091013598509650505050505050565b828054612196906126be565b90600052602060002090601f0160209004810192826121b857600085556121fe565b82601f106121d157805160ff19168380011785556121fe565b828001600101855582156121fe579182015b828111156121fe5782518255916020019190600101906121e3565b5061220a92915061220e565b5090565b5b8082111561220a576000815560010161220f565b60008060006060848603121561223857600080fd5b505081359360208301359350604090920135919050565b6000806040838503121561226257600080fd5b50508035926020909101359150565b80356001600160a01b038116811461079157600080fd5b60006020828403121561229a57600080fd5b611ba982612271565b600080600080600060a086880312156122bb57600080fd5b853594506122cb60208701612271565b93506122d960408701612271565b94979396509394606081013594506080013592915050565b6000806000806080858703121561230757600080fd5b5050823594602084013594506040840135936060013592509050565b60006020828403121561233557600080fd5b5035919050565b634e487b7160e01b600052604160045260246000fd5b604051601f8201601f1916810167ffffffffffffffff8111828210171561237b5761237b61233c565b604052919050565b6000602080838503121561239657600080fd5b823567ffffffffffffffff808211156123ae57600080fd5b818501915085601f8301126123c257600080fd5b8135818111156123d4576123d461233c565b8060051b91506123e5848301612352565b81815291830184019184810190888411156123ff57600080fd5b938501935b83851015611b4357843582529385019390850190612404565b60018060a01b038416815260006020848184015260606040840152835180606085015260005b8181101561245f57858101830151858201608001528201612443565b81811115612471576000608083870101525b50601f01601f19169290920160800195945050505050565b6000602080838503121561249c57600080fd5b823567ffffffffffffffff808211156124b457600080fd5b818501915085601f8301126124c857600080fd5b8135818111156124da576124da61233c565b6124ec601f8201601f19168501612352565b9150808252868482850101111561250257600080fd5b8084840185840137600090820190930192909252509392505050565b602080825260129082015271111053c8191bd95cc81b9bdd08195e1a5cdd60721b604082015260600190565b602080825260139082015272141bdbdb08191bd95cc81b9bdd08195e1a5cdd606a1b604082015260600190565b634e487b7160e01b600052601160045260246000fd5b60006000198214156125a1576125a1612577565b5060010190565b6001600160a01b039384168152919092166020820152604081019190915260600190565b6000602082840312156125de57600080fd5b81518015158114611ba957600080fd5b6000821982111561260157612601612577565b500190565b60008282101561261857612618612577565b500390565b600081600019048311821515161561263757612637612577565b500290565b634e487b7160e01b600052601260045260246000fd5b6000826126615761266161263c565b500490565b60006020828403121561267857600080fd5b5051919050565b6020808252600f908201526e151c985b9cd9995c8819985a5b1959608a1b604082015260600190565b634e487b7160e01b600052603260045260246000fd5b600181811c908216806126d257607f821691505b6020821081141561198557634e487b7160e01b600052602260045260246000fd5b6000826127025761270261263c565b50069056fea26469706673582212204487c59797f69aabc25e4011fbda2f3b43900638b9f79a765410f89a7edb08d164736f6c63430008090033",
  "linkReferences": {},
  "deployedLinkReferences": {}
}